:100000000C945D000C94B5040C948E040C94850043
:100010000C9485000C9485000C9485000C9485004C
:100020000C9485000C9485000C9485000C9485003C
:100030000C9485000C9485000C9485000C9485002C
:100040000C9444040C9485000C9412040C94EC035E
:100050000C9485000C9485000C9485000C9485000C
:100060000C9485000C9485000000000024002700FB
:100070002A0000000000250028002B0004040404CE
:100080000404040402020202020203030303030342
:10009000010204081020408001020408102001021F
:1000A00004081020000000080002010000030407FB
:1000B0000000000000000000DC0411241FBECFEF90
:1000C000D8E0DEBFCDBF11E0A0E0B1E0EEE7F1E1A6
:1000D00002C005900D92A036B107D9F722E0A0E644
:1000E000B1E001C01D92A439B207E1F710E0CDE5FF
:1000F000D0E004C02197FE010E94B208CC35D107A0
:10010000C9F70E9409050C94BD080C9400008230C8
:10011000C8F4E82FF0E0EE0FFF1FEE5FFE4F718393
:100120006083813041F0809169008C7F8260809390
:100130006900E89A089580916900837F88608093C0
:100140006900E99A0895CF92DF92EF92FF920F93A0
:100150001F93CF93DF936C017A018B01C0E0D0E055
:10016000CE15DF0589F0D8016D918D01D601ED9195
:10017000FC910190F081E02DC6010995892B11F4C5
:100180007E0102C02196ECCFC701DF91CF911F9174
:100190000F91FF90EF90DF90CF900895FC01918D2B
:1001A000828D981761F0828DDF01A80FB11D5D96D9
:1001B0008C91928D9F5F9F73928F90E008958FEF47
:1001C0009FEF0895FC01918D828D981731F0828DFB
:1001D000E80FF11D858D90E008958FEF9FEF089552
:1001E000FC01918D228D892F90E0805C9F4F821BB6
:1001F00091098F739927089587EF91E00E94F0008D
:1002000021E0892B09F420E0822F0895FC01848DE0
:10021000DF01A80FB11DA35ABF4F2C91848D90E030
:1002200001968F739927848FA689B7892C93A0890B
:10023000B1898C9180648C93938D848D981306C0C2
:100240000288F389E02D80818F7D80830895EF926D
:10025000FF920F931F93CF93DF93EC0181E0888F80
:100260009B8D8C8D981305C0E889F989808185FD67
:1002700024C0F62E0B8D10E00F5F1F4F0F73112758
:10028000E02E8C8DE8120CC00FB607FCFACFE8897F
:10029000F989808185FFF5CFCE010E940601F1CF5B
:1002A0008B8DFE01E80FF11DE35AFF4FF0820B8F9B
:1002B000EA89FB898081806207C0EE89FF896083BB
:1002C000E889F98980818064808381E090E0DF9112
:1002D000CF911F910F91FF90EF900895CF93DF93EF
:1002E000EC01888D8823C9F0EA89FB89808185FD2E
:1002F00005C0A889B9898C9186FD0FC00FB607FC8F
:10030000F5CF808185FFF2CFA889B9898C9185FFCF
:10031000EDCFCE010E940601E7CFDF91CF91089586
:1003200080E090E0892B29F00E94FC0081110C9460
:100330000000089590E0FC01EC55FF4F3491FC0162
:10034000E057FF4F2491FC01E458FF4FE491EE2366
:1003500009F43BC0332339F1333091F038F43130B4
:10036000A9F0323001F584B58F7D12C0373091F09D
:100370003830A1F03430B9F4809180008F7D03C013
:10038000809180008F77809380000DC084B58F7737
:1003900084BD09C08091B0008F7703C08091B00008
:1003A0008F7D8093B000F0E0EE0FFF1FEE58FF4FFF
:1003B000A591B4918FB7F894EC91611103C0209589
:1003C0002E2301C02E2B2C938FBF0895CF93DF9344
:1003D00090E0FC01E057FF4F2491FC01E458FF4FEF
:1003E0008491882361F190E0880F991FFC01E859FE
:1003F000FF4FC591D491FC01EE58FF4FA591B491E8
:10040000611109C09FB7F894888120958223888361
:10041000EC912E230BC0623061F49FB7F8943881C1
:10042000822F809583238883EC912E2B2C939FBF62
:1004300006C08FB7F894E8812E2B28838FBFDF91F9
:10044000CF9108952FB7F89460916A0170916B0174
:1004500080916C0190916D012FBF0895809178017A
:100460009091790101969093790180937801809120
:100470007801909179018097B4F180917401909105
:100480007501A0917601B091770140917001509172
:10049000710160917201709173018827B7FD839596
:1004A0009927AA27BB27842B952BA62BB72B8093A4
:1004B000700190937101A0937201B09373018091C8
:1004C000700190917101A0917201B0917301880F38
:1004D000991FAA1FBB1F8093700190937101A09375
:1004E0007201B09373018091740190917501A09194
:1004F0007601B0917701880F991FAA1FBB1F8093C7
:10050000740190937501A0937601B09377010E94D6
:10051000220260937A0170937B0180937C01909317
:100520007D010895809178019091790101969093D1
:100530007901809378018091780190917901809779
:10054000B4F18091740190917501A0917601B09100
:100550007701409170015091710160917201709129
:1005600073018827B7FD83959927AA27BB27842B7A
:10057000952BA62BB72B8093700190937101A093BC
:100580007201B09373018091700190917101A091FB
:100590007201B0917301880F991FAA1FBB1F80932E
:1005A000700190937101A0937201B09373018091D7
:1005B000740190917501A0917601B09177018160ED
:1005C0008093740190937501A0937601B0937701A5
:1005D0008091740190917501A0917601B09177019D
:1005E000880F991FAA1FBB1F8093740190937501F8
:1005F000A0937601B09377010E94220260937A0162
:1006000070937B0180937C0190937D010895089500
:100610000F931F93CF932091F601222361F0509303
:1006200001014093000125E030E030936401209304
:1006300063011092F601009161011091620120E0C6
:1006400030E0061717072807390760F520910001E9
:1006500030910101620F731F709362016093610119
:10066000C0916001CC2311F061E001C060E08CE03A
:100670000E949A0121E0C227C0936001809163012A
:1006800090916401009731F00197909364018093F9
:10069000630108C088E592E0909301018093000116
:1006A0002093F601CF911F910F910895009769F063
:1006B000FC0101900020E9F73197AF01481B590B6D
:1006C000BC0187EF91E00C94A30080E090E00895D6
:1006D0008F929F92AF92BF92CF92DF92EF92FF9252
:1006E0000F931F93CF93DF93CDB7DEB7A1970FB6CC
:1006F000F894DEBF0FBECDBF6C01990FEE08FF0866
:10070000F7FE31C0E091F701F091F8010190F0811E
:10071000E02D6DE287EF91E009958C0122273327C8
:10072000A9012C193D094E095F0919A2CE01819634
:100730007C019AE0892E912CA12CB12CCA01B9011F
:10074000A50194010E949008605DF70162937F010A
:10075000211531054105510589F7CF010E94560346
:10076000080F191F1EC0A701960119A28E010F5D67
:100770001F4F8AE0C82ED12CE12CF12CCA01B901FF
:10078000A70196010E949008605DF80162938F01B5
:10079000211531054105510589F7CF010E94560306
:1007A0008C0186E191E00E945603800F911FA19673
:1007B0000FB6F894DEBF0FBECDBFDF91CF911F9172
:1007C0000F91FF90EF90DF90CF90BF90AF909F90F0
:1007D0008F9008950E94B8081F920F920FB60F9243
:1007E00011242F933F934F935F936F937F938F9336
:1007F0009F93AF93BF93EF93FF9387EF91E00E9496
:100800000601FF91EF91BF91AF919F918F917F91E1
:100810006F915F914F913F912F910F900FBE0F906D
:100820001F9018951F920F920FB60F9211242F93BD
:100830008F939F93EF93FF93E0910702F09108024B
:100840008081E0910D02F0910E0282FD12C0908134
:10085000809110028F5F8F7320911102821751F0E7
:10086000E0911002F0E0E950FE4F958F8093100266
:1008700001C08081FF91EF919F918F912F910F90F7
:100880000FBE0F901F9018951F920F920FB60F92E8
:1008900011242F933F938F939F93AF93BF93809196
:1008A0006A0190916B01A0916C01B0916D01309142
:1008B000690123E0230F2D3720F40196A11DB11DFE
:1008C00005C026E8230F0296A11DB11D20936901E2
:1008D00080936A0190936B01A0936C01B0936D01BA
:1008E0008091650190916601A0916701B0916801C6
:1008F0000196A11DB11D8093650190936601A0939F
:100900006701B0936801BF91AF919F918F913F9123
:100910002F910F900FBE0F901F9018951F920F925E
:100920000FB60F9211242F933F934F935F936F93C2
:100930007F938F939F93AF93BF93EF93FF93E09138
:100940000401F09105010995FF91EF91BF91AF91DD
:100950009F918F917F916F915F914F913F912F91D7
:100960000F900FBE0F901F9018951F920F920FB609
:100970000F9211242F933F934F935F936F937F9325
:100980008F939F93AF93BF93EF93FF93E0910201F7
:10099000F09103010995FF91EF91BF91AF919F9164
:1009A0008F917F916F915F914F913F912F910F9018
:1009B0000FBE0F901F901895E7EFF1E0138212829F
:1009C00088EE93E0A0E0B0E084839583A683B783AC
:1009D0008AE091E09183808385EC90E0958784871D
:1009E00084EC90E09787868780EC90E0918B808BF9
:1009F00081EC90E0938B828B82EC90E0958B848BE2
:100A000086EC90E0978B868B118E128E138E148E4F
:100A10000895789484B5826084BD84B5816084BD76
:100A200085B5826085BD85B5816085BD80916E008C
:100A3000816080936E0010928100809181008260BD
:100A400080938100809181008160809381008091FA
:100A500080008160809380008091B10084608093E9
:100A6000B1008091B00081608093B00080917A00E5
:100A7000846080937A0080917A00826080937A000B
:100A800080917A00816080937A0080917A008068FA
:100A900080937A001092C100E0910702F091080261
:100AA00082E08083E0910302F09104021082E091E1
:100AB0000502F09106028FEC808310920F02E09104
:100AC0000B02F0910C0286E08083E0910902F09124
:100AD0000A02808180618083E0910902F0910A021C
:100AE000808188608083E0910902F0910A02808110
:100AF00080688083E0910902F0910A0280818F7DF5
:100B0000808310927A0110927B0110927C011092E6
:100B10007D01109270011092710110927201109279
:100B20007301109274011092750110927601109267
:100B3000770110927E0110927F0110928001109235
:100B4000810110926F0110926E0110927901109242
:100B5000780160E082E00E94E60160E083E00E94AC
:100B6000E6016EE272E080E00E94870062E972E0D6
:100B700081E00E94870061E08CE00E94E60161E074
:100B80008AE00E94E60161E089E00E94E60189E1D5
:100B900091E00E94560386E191E00E9456030E9474
:100BA00022026B017C01F8940E9422028B019C01BD
:100BB00080917A0190917B01A0917C01B0917D019F
:100BC000B901A801481B590B6A0B7B0B4A3151052F
:100BD0006105710508F4BAC080917801909179019E
:100BE0004897F9F080917801909179014A97C9F07E
:100BF0008091780190917901809799F080917801A6
:100C000090917901829769F08091780190917901B2
:100C1000089739F08091780190917901049709F053
:100C200079C08091740190917501A0917601B09185
:100C30007701B695A79597958795809374019093C2
:100C40007501A0937601B09377018091780190911E
:100C500079018197A4F08091700190917101A09128
:100C60007201B0917301B695A7959795879580937A
:100C7000700190937101A0937201B0937301809100
:100C8000780190917901089709F032C1409174017F
:100C90005091750160917601709177018091740196
:100CA00090917501A0917601B09177018F70E091DC
:100CB0007801F0917901F0936F01E0936E01109249
:100CC00079011092780110927401109275011092BE
:100CD00076011092770110927001109271011092BA
:100CE000720110927301E82F082E000CFF0B407F59
:100CF000552766277727A4E07695679557954795FA
:100D0000AA95D1F7409550954F705527E417F507F0
:100D100009F4E1C000937A0110937B0120937C01D8
:100D200030937D0110927901109278011092740134
:100D30001092750110927601109277011092700155
:100D400010927101109272011092730180E07894F8
:100D5000882359F000917E0110917F0148EC50E00A
:100D6000C701B6010E94080302C000E010E048E598
:100D700052E0C701B6010E940803101611062CF5B7
:100D8000E4E8F1E051E0E83EF50709F48BC1819118
:100D9000919180179107B1F786E491E00E94560384
:100DA000C8010E946803D701C6018854944FAF4F11
:100DB000BF4F8093F2019093F301A093F401B0939D
:100DC000F50161E08AE00E949A018091EE01909124
:100DD000EF01A091F001B091F1018C159D05AE05D8
:100DE000BF0520F460E089E00E949A018091F20141
:100DF0009091F301A091F401B091F5018C159D053E
:100E0000AE05BF0520F460E08AE00E949A0180915F
:100E1000EA019091EB01A091EC01B091ED01805DB0
:100E20009A48AF4FBF4FC816D906EA06FB0608F42A
:100E30004FC0D701C601805D9A48AF4FBF4F809326
:100E4000EA019093EB01A093EC01B093ED01809146
:100E5000E8019091E901FC01EE0FFF1FEC57FE4FF6
:100E600020813181232B79F0118210828133910509
:100E700030F401969093E9018093E80104C0109248
:100E8000E9011092E801CF20CE20CD20C09401F5D9
:100E90001092F2011092F3011092F4011092F501F8
:100EA0001092EE011092EF011092F0011092F101F8
:100EB0001092EA011092EB011092EC011092ED01F8
:100EC00084E391E00E94560386E191E00E9456037C
:100ED0000E94900164CE8A3021F08B3019F48DE0AD
:100EE00001C08BE1082E000C990BAA0BBB0BD0C0E4
:100EF00080917801909179010497D1F580917401E6
:100F000090917501A0917601B09177018F708A3030
:100F100021F08B3019F48DE001C08BE1082E000C1C
:100F2000990BAA0BBB0B80937E0190937F01A0933A
:100F30008001B09381018091780190917901909323
:100F40006F0180936E0110927901109278011092D6
:100F5000740110927501109276011092770110922F
:100F6000700110927101109272011092730198C079
:100F700080917801909179018A3179F4809174019E
:100F800090917501A0917601B09177018E7FB1703B
:100F9000B695A795979587955FC0823209F054C0A2
:100FA0008091700190917101A0917201B0917301D3
:100FB00083709927AA27BB278093700190937101B2
:100FC000A0937201B09373018091700190917101AF
:100FD000A0917201B09173016EE1880F991FAA1F51
:100FE000BB1F6A95D1F78093700190937101A09314
:100FF0007201B09373018091740190917501A09179
:101000007601B0917701B695A795979587958093CE
:10101000740190937501A0937601B093770180914C
:10102000700190917101A0917201B0917301409192
:101030007401509175016091760170917701842B54
:10104000952BA62BB72B08C0809174019091750148
:10105000A0917601B09177012091780130917901CA
:1010600030936F0120936E011092790110927801F4
:10107000109274011092750110927601109277010E
:10108000109270011092710110927201109273010E
:1010900080937E0190937F01A0938001B0938101A2
:1010A00081E055CE83E591E00E945603C8010E947D
:1010B0006803D701C60188519C4FAF4FBF4F809343
:1010C000EE019093EF01A093F001B093F10161E084
:1010D00089E00E949A012091820130918301F901F7
:1010E000EE0FFF1FEC57FE4F1183008321333105B4
:1010F00038F42F5F3F4F309383012093820165CEF8
:101100008091E8019091E9018217930721F41092F0
:10111000E9011092E801109283011092820155CEEC
:10112000A1E21A2EAA1BBB1BFD010DC0AA1FBB1FEB
:10113000EE1FFF1FA217B307E407F50720F0A21B5D
:10114000B30BE40BF50B661F771F881F991F1A94CA
:1011500069F760957095809590959B01AC01BD01F4
:10116000CF010895EE0FFF1F0590F491E02D099433
:0E11700081E090E0F8940C94BD08F894FFCF55
:10117E00580207030703000000002701A300F00038
:10118E00CE00E2006E010D0A00506C6163612063B7
:10119E006F6D616E646F2070617261206361747235
:1011AE00616361004F766572666C6F77204D696C76
:1011BE006C6973282900426C6F71756561646F2DBF
:1011CE002D2D004C6962657261646F2D2D2D00000E
:107E0000112484B714BE81FFF0D085E080938100F7
:107E100082E08093C00088E18093C10086E0809377
:107E2000C20080E18093C4008EE0C9D0259A86E02C
:107E300020E33CEF91E0309385002093840096BBD3
:107E4000B09BFECF1D9AA8958150A9F7CC24DD24C4
:107E500088248394B5E0AB2EA1E19A2EF3E0BF2EE7
:107E6000A2D0813461F49FD0082FAFD0023811F036
:107E7000013811F484E001C083E08DD089C08234E0
:107E800011F484E103C0853419F485E0A6D080C0E4
:107E9000853579F488D0E82EFF2485D0082F10E0AE
:107EA000102F00270E291F29000F111F8ED06801E7
:107EB0006FC0863521F484E090D080E0DECF843638
:107EC00009F040C070D06FD0082F6DD080E0C81688
:107ED00080E7D80618F4F601B7BEE895C0E0D1E017
:107EE00062D089930C17E1F7F0E0CF16F0E7DF06D8
:107EF00018F0F601B7BEE89568D007B600FCFDCFD4
:107F0000A601A0E0B1E02C9130E011968C91119780
:107F100090E0982F8827822B932B1296FA010C0160
:107F200087BEE89511244E5F5F4FF1E0A038BF0790
:107F300051F7F601A7BEE89507B600FCFDCF97BE46
:107F4000E89526C08437B1F42ED02DD0F82E2BD052
:107F50003CD0F601EF2C8F010F5F1F4F84911BD097
:107F6000EA94F801C1F70894C11CD11CFA94CF0C13
:107F7000D11C0EC0853739F428D08EE10CD085E9AC
:107F80000AD08FE07ACF813511F488E018D01DD067
:107F900080E101D065CF982F8091C00085FFFCCF94
:107FA0009093C60008958091C00087FFFCCF809118
:107FB000C00084FD01C0A8958091C6000895E0E648
:107FC000F0E098E1908380830895EDDF803219F02E
:107FD00088E0F5DFFFCF84E1DECF1F93182FE3DFCA
:107FE0001150E9F7F2DF1F91089580E0E8DFEE27F6
:047FF000FF270994CA
:027FFE00040479
:0400000300007E007B
:00000001FF
